:100000000C94190D0C943E0D0C943E0D0C943E0D69
:100010000C943E0D0C943E0D0C943E0D0C943E0D34
:100020000C943E0D0C943E0D0C94F00F0C943E0D70
:100030000C943E0D0C943E0D0C943E0D0C943E0D14
:100040000C943E0D0C943E0D0C943E0D0C943E0D04
:100050000C943E0D0C943E0D0C943E0D0C943E0DF4
:100060000C943E0D0C943E0D0C943E0D0C943E0DE4
:100070000C943E0D0C943E0D0C943E0D0C943E0DD4
:100080000C943E0D0C943E0D0C945F2B0C947C3420
:100090000C943E0D0C943E0D0C943E0D0C943E0DB4
:1000A0000C943E0D0C943E0D0C943E0D0C943E0DA4
:1000B0000C943E0D0C943E0D0C943E0D0C942C2C87
:1000C0000C943E0D0C94BF2F0C94E4350C943E0D13
:1000D0000C943E0D0C943E0D0C943E0D0C943E0D74
:1000E0000C943E0D0C943E0D0C94D51C0C943E0DBE
:1000F0000C943E0D0C943E0D0C943E0D0C943E0D54
:100100000C943E0D0C943E0D0C943E0D0C943E0D43
:100110000C94BD350C949A2F0C943E0D0C943E0D0E
:100120000C943E0D0C943E0D0C943E0D0C943E0D23
:100130000C943E0D0C943E0D0C943E0D0C94952B9E
:100140000C94770D0C94CC2E0C94A5340C943E0D8D
:100150000C943E0D0C94112F0C941A360C943E0DF9
:100160000C943E0D0C943E0D0C943E0D0C943E0DE3
:100170000C943E0D0C943E0D0C943E0D0C943E0DD3
:100180000C943E0D0C943E0D0C943E0D0C943E0DC3
:100190000C943E0D0C943E0D0C943E0D0C943E0DB3
:1001A0000C943E0D0C943E0D0C943E0D0C943E0DA3
:1001B0000C943E0D0C943E0D0C943E0D0C943E0D93
:1001C0000C943E0D0C943E0D0C943E0D0C943E0D83
:1001D0000C943E0D0C943E0D0C943E0D0C943E0D73
:1001E0000C943E0D0C943E0D0C943E0D0C943E0D63
:1001F0000C943E0D0C9431730C943E0D6364696E47
:100200006F70737578585B001E03430068006100CF
:100210006D0065006C0065006F006E002D004D00E4
:1002200069006E00690000002A034B006100730042
:100230007000650072002000260020004F0073004F
:10024000770061006C006400200047006D006200D0
:10025000480000000403090409023E00020100C036
:10026000320904000001020201000524001001040B
:100270002402060524060001070582030800FF0981
:10028000040100020A00000007050402100005072F
:100290000583021000051201100102000008D016AB
:1002A000B20401000102DC01AF10B010B110B210B5
:1002B000B310B410A910AA10AE10AD1000000001C8
:1002C00000ED2C6E2D8D2D663982398C39A9108D5B
:1002D000399E3DB13D4000070001ED2C6E2D8D2D66
:1002E000F03886398C39A9108D399E3DB13DC0005A
:1002F000070001ED2C6E2D8D2D7A3982398C39A9AC
:10030000108D399E3DB13D5000070001ED2C6E2D42
:100310008D2D7E3982398C39A9108D399E3DB13DA4
:10032000A400070001ED2C6E2D8D2D8E3EA83FAC54
:100330003FA910AD3FA347BF474001040001ED2C8A
:100340006E2D8D2DDE3EA83FAC3FA910AD3FA347DB
:10035000BF470004040001ED2C6E2D8D2D063FA833
:100360003FAC3FA910AD3FA347BF470004070001C2
:10037000ED2C6E2D8D2D173FA83FAC3FA910AD3F42
:10038000A347BF470010040001ED2C6E2D8D2D3FBB
:100390003FA83FAC3FA910AD3FA347BF47001007A0
:1003A0000001ED2C6E2D8D2D503FA83FAC3FA910C4
:1003B000AD3FA347BF470004040001ED2C6E2D8D17
:1003C0002D7D3FA83FAC3FA910AD3FA347BF4700DD
:1003D00010040001D4369137B237595E675E6C5E07
:1003E0006D5E6F5EAE10AD100000000100322EBADF
:1003F0002E5B3097569A56A756A8564D59AE10AD5B
:100400001000000000003962BC62EF626E6371632D
:100410007463756376635A6461640020080005396B
:1004200062BC62EF62B210B310B410A910AA10AE91
:1004300010AD1000000001003962BC62EF62686418
:100440006B646E646F6470646A6671660020080095
:10045000053962BC62EF6278669666A466A566C5D9
:1004600066B76616682C000800053962BC62EF6248
:100470004269596969696A691E6DB06C3B6ED0004A
:10048000080005004E4F4E4500000000000000002F
:10049000000000000000000000000000000000005C
:1004A00000000000014D465F554C5452414C4947F5
:1004B00048540000000000000000000000000000A0
:1004C0000000000000034D465F554C5452414C491A
:1004D0004748545F4556315F383042000000000005
:1004E000000000000000044D465F554C5452414C42
:1004F000494748545F4556315F3136344200000069
:1005000000000000000000024D465F554C5452416F
:100510004C494748545F43000000000000000000C1
:100520000000000000000000054D465F434C4153B1
:100530005349435F4D494E495F344200000000007B
:10054000000000000000000000064D465F434C41E3
:10055000535349435F314B0000000000000000008E
:1005600000000000000000000000074D465F434C03
:1005700041535349435F314B5F3742000000000055
:100580000000000000000000000000084D465F432E
:100590004C41535349435F344B00000000000000BE
:1005A000000000000000000000000000094D465F50
:1005B000434C41535349435F344B5F374200000083
:1005C000000000000000000000000000000A4D468E
:1005D0005F444554454354494F4E5F314B00000042
:1005E00000000000000000000000000000000B4DB3
:1005F000465F444554454354494F4E5F344B0000D9
:100600000000000000000000000000000000000CDE
:1006100049534F3134343433415F534E49464600D9
:1006200000000000000000000000000000000000CA
:100630000D49534F3134343433415F5245414445C1
:100640005200000000000000000000000000000058
:10065000000E564943494E4954590000000000001D
:10066000000000000000000000000000000000008A
:1006700000000F49534F31353639335F534E4946E9
:100680004600000000000000000000000000000024
:1006900000000010534C3253323030320000000062
:1006A000000000000000000000000000000000004A
:1006B0000000000011544954414749545354414EDD
:1006C000444152440000000000000000000000000F
:1006D000000000000012454D3432333300000000AA
:1006E000000000000000000000000000000000000A
:1006F00000000000000001000001000101000001F5
:1007000001000100000100010100010000010100E1
:1007100000010001010000010100010000010100D1
:1007200000010001010001000001000101000001C1
:1007300001000100000100010100010000010100B1
:1007400000010001010001000001000101000001A1
:100750000100010000010100000100010100000191
:100760000100010000010001010001000001010081
:100770000001000101000001010001000001010071
:100780000001000101000100000100010100000161
:100790000100010000010100000100010100000151
:1007A0000100010000010001010001000001010041
:1007B0000001000101000100000100010100000131
:1007C0000100010000010001010001000001010021
:1007D0000001000101000001010001000001010011
:1007E0000001000101000100000100010100000101
:1007F000010001000001008040C020A060E01090D6
:1008000050D030B070F0088848C828A868E8189818
:1008100058D838B878F8048444C424A464E4149400
:1008200054D434B474F40C8C4CCC2CAC6CEC1C9CB8
:100830005CDC3CBC7CFC028242C222A262E21292DC
:1008400052D232B272F20A8A4ACA2AAA6AEA1A9AB8
:100850005ADA3ABA7AFA068646C626A666E61696A0
:1008600056D636B676F60E8E4ECE2EAE6EEE1E9E58
:100870005EDE3EBE7EFE018141C121A161E111919A
:1008800051D131B171F1098949C929A969E9199988
:1008900059D939B979F9058545C525A565E5159570
:1008A00055D535B575F50D8D4DCD2DAD6DED1D9D28
:1008B0005DDD3DBD7DFD038343C323A363E313934C
:1008C00053D333B373F30B8B4BCB2BAB6BEB1B9B28
:1008D0005BDB3BBB7BFB078747C727A767E7179710
:1008E00057D737B777F70F8F4FCF2FAF6FEF1F9FC8
:1008F0005FDF3FBF7FFF004E4F4E4500000000000E
:1009000000000000000000000000000000000000E7
:1009100000000000000000015549445F52414E4470
:100920004F4D00000000000000000000000000002B
:100930000000000000000000025549445F4C45469D
:10094000545F494E4352454D454E5400000000004F
:10095000000000000000000000035549445F5249B8
:100960004748545F494E4352454D454E54000000A0
:1009700000000000000000000000045549445F4CE6
:100980004546545F44454352454D454E5400000092
:100990000000000000000000000000055549445F11
:1009A00052494748545F44454352454D454E5400D3
:1009B0000000000000000000000000000643594352
:1009C0004C455F53455454494E47530000000000C6
:1009D0000000000000000000000000000007435974
:1009E000434C455F53455454494E47535F44454338
:1009F000000000000000000000000000000008539C
:100A0000544F52455F4D454D00000000000000006E
:100A100000000000000000000000000000000009CD
:100A2000524543414C4C5F4D454D000000000000D5
:100A300000000000000000000000000000000000B6
:100A40000A544F47474C455F4649454C4400000017
:100A50000000000000000000000000000000000096
:100A6000000B53544F52455F4C4F470000000000AD
:100A70000000000000000000000000000000000076
:100A800000000C434C4541525F4C4F4700000000B2
:100A90000000000000000000000000000000000056
:100AA0000000000D434C4F4E4500000000000000C8
:100AB0000000000000000000000000000000000036
:100AC00000000000004F464600000000000000004B
:100AD0000000000000000000000000000000000016
:100AE0000000000000014D454D4F5259000000002C
:100AF00000000000000000000000000000000000F6
:100B0000000000000000024C4956450000000000B3
:100B100000000000000000000000000000000000D5
:100B200000000000000000004E4F4E450000000095
:100B300000000000000000000000000000000000B5
:100B4000000000000000000001504F57455245448E
:100B50000000000000000000000000000000000095
:100B6000000000000000000000025445524D494EB4
:100B7000414C5F434F4E4E0000000000000000005B
:100B800000000000000000000000035445524D49E1
:100B90004E414C5F525854580000000000000000C5
:100BA0000000000000000000000000045345545401
:100BB000494E475F4348414E474500000000000052
:100BC000000000000000000000000000054D454D41
:100BD0004F52595F53544F524544000000000000EB
:100BE00000000000000000000000000000064D456D
:100BF0004D4F52595F4348414E4745440000000065
:100C00000000000000000000000000000000084399
:100C10004F4445435F5258000000000000000000B0
:100C200000000000000000000000000000000009BB
:100C3000434F4445435F545800000000000000004B
:100C400000000000000000000000000000000000A4
:100C5000074649454C445F44455445435445440088
:100C60000000000000000000000000000000000084
:100C7000000A4C4F474D454D5F46554C4C00000017
:100C80000000000000000000000000000000000064
:100C9000000025632C25630025632C256300256354
:100CA0002C256300496E76616C696420426175642D
:100CB000726174652E0D0A55736520446566617511
:100CC0006C742062617564726174652034363038EA
:100CD00030302E0D0A0053657420256C6420457257
:100CE000726F722E0D0A00256C640025632C25633B
:100CF0000025356400416E7920696E746567657200
:100D00002066726F6D203020746F2025752E205262
:100D100065666572656E636520766F6C7461676584
:100D20002077696C6C2062652028564343202A2076
:100D30005448524553484F4C44202F2034303935C5
:100D400029206D562E002575002535640030203D84
:100D5000206E6F2074696D656F75740D0A312D36C4
:100D60003030203D20313030206D73202D20363042
:100D7000303030206D732074696D656F7574002597
:100D800075206D730025342E345800253575206D7F
:100D900056002575202866726F6D20776869636834
:100DA000202575206E6F6E2D766F6C6174696C6591
:100DB000290025750025750025632C256300524107
:100DC0004E444F4D004E4F205549442E004368611C
:100DD0006D656C656F6E4D696E6920526576472052
:100DE000636F6D70696C65642061742025532025E4
:100DF0005328255329207573696E67204C55464149
:100E00002025532077697468204156522D4743436B
:100E10002025532E00323032302D30362D32320024
:100E200031313A30383A3434003461633731353453
:100E30000031353131313500352E342E30000D0A78
:100E4000000D0A000D0A000D0A000D0A000D0A002F
:100E5000643130303A4F4B000000000000000000C9
:100E60000000000000000000000000000000000082
:100E700000653130313A4F4B205749544820544592
:100E800058540000000000000000000000000000B6
:100E900000006E3131303A57414954494E4720469F
:100EA0004F5220584D4F44454D00000000000000B7
:100EB000000000C83230303A554E4B4E4F574E204E
:100EC000434F4D4D414E4400000000000000000023
:100ED00000000000C93230313A494E56414C494475
:100EE00020434F4D4D414E4420555341474500004E
:100EF0000000000000CA3230323A494E56414C4997
:100F00004420504152414D455445520000000000DC
:100F1000000000000000783132303A46414C534521
:100F200000000000000000000000000000000000C1
:100F300000000000000000793132313A545255452A
:100F400000000000000000000000000000000000A1
:100F50000000000000000000CB3230333A54494D0D
:100F6000454F555400000000000000000000000044
:100F700000000000000000000056455253494F4E4B
:100F8000000000000000000000000000000000E47D
:100F90001F434F4E4649470000000000000000007C
:100FA000000000000010200A205549440000000005
:100FB000000000000000000000000000007120326E
:100FC00020524541444F4E4C5900000000000000A3
:100FD0000000000000D920CD2055504C4F41440066
:100FE00000000000000000000006210000000000DA
:100FF00000444F574E4C4F41440000000000000099
:10100000000B210000000000005245534554000031
:10101000000000000000000000102100000000009F
:1010200000555047524144450000000000000000B8
:10103000001B210000000000004D454D53495A455A
:10104000000000000000000000000000000000267A
:101050002155494453495A45000000000000000052
:10106000000000000000003E2152425554544F4EF3
:10107000000000000000000000000000005C21549F
:101080002152425554544F4E5F4C4F4E4700000082
:1010900000000000007B2173214C425554544F4EF8
:1010A000000000000000000000000000009A2192F3
:1010B000214C425554544F4E5F4C4F4E4700000058
:1010C0000000000000B921B1214C4544475245457C
:1010D0004E000000000000000000000000D721D0FA
:1010E000214C45445245440000000000000000002F
:1010F0000000000000F321EC214C4F474D4F4445C8
:10110000000000000000000000000000000E2208A7
:10111000224C4F474D454D000000000000000000EC
:101120000000000000000025224C4F47444F574E5E
:101130004C4F414400000000004B22000000000022
:10114000004C4F4753544F52450000000000000030
:101150000050220000000000004C4F47434C454126
:1011600052000000000000000054220000000000B7
:101170000053455454494E47000000000000000051
:1011800000000000005D225822434C4541520000FF
:1011900000000000000000000065220000000000C8
:1011A0000053544F524500000000000000000000B2
:1011B000006922000000000000524543414C4C00F1
:1011C0000000000000000000006D22000000000090
:1011D000004348415247494E4700000000000000CC
:1011E00000000000000000712248454C5000000043
:1011F0000000000000000000007922000000000054
:10120000005253534900000000000000000000009D
:1012100000000000000000B5225359535449434BCD
:10122000000000000000000000000000000000E8D6
:101230002253454E445F5241570000000000000019
:101240000000008E230000000053454E44000000C3
:101250000000000000000000000000042300000067
:1012600000474554554944000000000000000000BC
:10127000004A2400000000000044554D505F4D46D8
:101280005500000000000000002D240000000000B8
:10129000004944454E5449465900000000000000F2
:1012A00000672400000000000054494D454F55548C
:1012B00000000000000000000000000000A42484E2
:1012C000245448524553484F4C440000000000004D
:1012D00000000000001125F7244155544F43414CB4
:1012E000494252415445000000A42500000000007E
:1012F000004649454C44000000000000000000008A
:10130000000000000066259025434C4F4E4500002C
:10131000000000000000000000D0250000000000D8
:10132000005549444D4F44450000000000000000B6
:1013300000000000006B269C2653414B4D4F444556
:1013400000000000000000000000000000A426EAE9
:101350002600000000000000000000000000000067
:101360000000000000000000004C45444D4F444583
:101370000000000000000000000000000024265FC4
:1013800026444554454354494F4E00000000000098
:101390000000000000DB3ED53E424155445241541E
:1013A000450000000000000000000000000000E711
:1013B0002553414B3A09005549443A0900415451DB
:1013C000413A090054686572652069732061742090
:1013D0006C65617374206F6E65206D6F726520633C
:1013E00061726420747970652063616E6469646100
:1013F00074652C206275742074686572652077614D
:1014000073206E6F7420656E6F75676820746572E7
:101410006D696E616C2062756666657220737061BD
:1014200063652E0D0A000D0A000400010901000089
:1014300000000000000000000000000000000000AC
:101440004E585000000000000000000000000000A6
:101450004D4946415245204D696E6900000000002B
:10146000000000000000000000000000000000007C
:10147000000000000000000000000000000000006C
:10148000000000000000000000000000000000005C
:10149000040001080100000000000000000000003E
:1014A000000000000000004E585000000000000046
:1014B000000000000000004D494641524520436CA9
:1014C000617373696320316B00000000000000004D
:1014D000000000000000000000000000000000000C
:1014E00000000000000000000000000000000000FC
:1014F00000000000000000020001180100000000D0
:1015000000000000000000000000000000004E5835
:1015100050000000000000000000000000004D49E5
:101520004641524520436C617373696320346B00FC
:1015300000000000000000000000000000000000AB
:10154000000000000000000000000000000000009B
:101550000000000000000000000000000000440047
:101560000100010000000000000000000000000079
:1015700000000000004E5850000000000000000075
:1015800000000000004D494641524520556C7472E0
:10159000616C6967687400000000000000000000D2
:1015A000000000000000000000000000000000003B
:1015B000000000000000000000000000000000002B
:1015C00000000000004403012001757781028000C3
:1015D0000000000000000000000005004E58500010
:1015E0000000000000000000000000004D494641DE
:1015F00052452044455346697265000000000000D2
:1016000000000000000000000000000000000000DA
:1016100000000000000000000000000000000000CA
:101620000000000000000000000000004403012052
:1016300001757781028000000000000000000000BA
:101640000005004E5850000000000000000000009F
:101650000000004D494641524520444553466972B9
:101660006520455631000000000000000000000029
:10167000000000000000000000000000000000006A
:10168000000000000000000000000000000000005A
:1016900000000004030128013877B14A434F50335A
:1016A0003100000000000000090149424D00000027
:1016B000000000000000000000004A434F5033319A
:1016C000000000000000000000000000000000001A
:1016D000000000000000000000000000000000000A
:1016E00000000000000000000000000000000000FA
:1016F0000000000000000000000048000120017808
:1017000077B1024A434F5076323431000000000C6A
:101710000149424D000000000000000000000000F0
:10172000004A434F5033312076322E342E310000A0
:1017300000000000000000000000000000000000A9
:101740000000000000000000000000000000000099
:101750000000000000000000000000000000000089
:101760000048000120013833B14A434F503431560C
:101770003232000000000C0149424D000000000020
:1017800000000000000000004A434F503431207632
:10179000322E3200000000000000000000000000B7
:1017A0000000000000000000000000000000000039
:1017B0000000000000000000000000000000000029
:1017C000000000000000000004000128013833B1CF
:1017D0004A434F503431563233310000000D014935
:1017E000424D000000000000000000000000004A20
:1017F000434F5034312076322E332E31000000001A
:1018000000000000000000000000000000000000D8
:1018100000000000000000000000000000000000C8
:1018200000000000000000000000000000000004B4
:10183000000188010000000000000000000000001E
:10184000000000000000496E66696E656F6E000062
:101850000000000000004D494641524520436C61A4
:101860007373696320316B0000000000000000000A
:101870000000000000000000000000000000000068
:101880000000000000000000000000000000000058
:1018900000000000000002000198010000000000AC
:1018A0000000000000000000000000000047656D1F
:1018B000706C75730000000000000000004D504384
:1018C0004F53000000000000000000000000000076
:1018D0000000000000000000000000000000000008
:1018E00000000000000000000000000000000000F8
:1018F00000000000000000000000000000000C01DB
:1019000000000000000000000000000000000000D7
:1019100000000000496E6E6F766973696F6E205229
:10192000265400004A6577656C0000000000000046
:1019300000000000000000000000000000000000A7
:101940000000000000000000000000000000000097
:101950000000000000000000000000000000000087
:10196000000000000200013801000000000000003B
:1019700000000000000000000000004E6F6B696175
:1019800000000000000000000000004D49464152E8
:101990004520436C617373696320346B202D20658F
:1019A0006D756C6174656420283632313220436C69
:1019B00061737369632900000000000000000000EB
:1019C00000000000000000000000000800013801D5
:1019D0000000000000000000000000000000000007
:1019E00000004E6F6B696100000000000000000005
:1019F00000004D494641524520436C617373696351
:101A000020346B202D20656D756C61746564202811
:101A100036313331204E46432900000000000000DB
:101A200000000000000000000000000000000000B6
:101A3000000011241FBECFEFCDBFDFE3DEBF00E00B
:101A40000CBF18BE19BE1ABE1BBE14E2A0E0B0E265
:101A5000EEE5FAEF00E00BBF02C007900D92A03C4C
:101A6000B107D9F71BBE2DE3A0ECB4E201C01D9273
:101A7000A531B207E1F7BFD10C942D7DA8C23BB7C9
:101A80008BBFFB01879196913BBF08953BB78BBFFE
:101A9000CB0142E20D94F00F3BB70B0143E20D94F2
:101AA000F00F3BB78BBFCB0145E20D94F00F3BB776
:101AB00046E208C02091CF0127FDFCCF22272093CA
:101AC000CA0108954093CA0128ED31E02093340003
:101AD0003093CB016091C4017091C5018091C60122
:101AE00099270895FC014093CA01849108950F92AB
:101AF00000240F932F933F934F935F930FB70F9350
:101B0000EF93FF93EAB1FBB15191442735B124B172
:101B1000569578F400928C080092000806E10A9528
:101B2000F1F700C001E00093000803E000938C0887
:101B300004C00AE10A95F1F700002150304019F481
:101B40000E94022F0CC04F5F477011F4519102C0E8
:101B500000C000C00AE00A95F1F700C0D9CFFF919C
:101B6000EF910F910FBF5F914F913F912F910F9187
:101B70000F901895F190E190D190C190B190A19003
:101B8000919081900B941B942B943B944B945B9479
:101B90006B947B948B949B94AB94BB94CB94DB948D
:101BA000EB94FB940895F801D894E4DF5894E2DFB5
:101BB000D894E0CFF801D894DDDF5894DBDFF8014A
:101BC000D894D8CFF801D894D5CFF8015894D2CF73
:101BD000F80170965894CEDFF8013896D894CADF91
:101BE000F8015894C7CFF8015894C4DFD894C2DFE5
:101BF000F8015894BFCFFF90EF90DF90CF90BF9047
:101C0000AF909F908F907F906F905F904F903F909C
:101C10002F90112408952F923F924F925F926F92CE
:101C20007F928F929F92AF92BF92CF92DF92EF926C
:101C3000FF920F931F93FB0171906190519041901F
:101C400031902190119001908A01CDDFFC017192B9
:101C500061925192419231922192119201921F917F
:101C60000F91C9CF2F923F924F925F926F927F92C6
:101C70008F929F92AF92BF92CF92DF92EF92FF929C
:101C80000F931F93FC01719061905190419031909E
:101C90002190119001908A018DDFFB017192619278
:101CA0005192419231922192119201921F910F9182
:101CB000A2CF2F923F924F925F926F927F928F921C
:101CC0009F92AF92BF92CF92DF92EF92FF92CF930B
:101CD000DF93EB01DA01BF01F9017190619051903E
:101CE00041903190219011900190F990E990D99014
:101CF000C990B990A990999089907F246E245D2411
:101D00004C243B242A2419240824FB0109957D92A4
:101D10006D925D924D923D922D921D920D92019782
:101D200021F7D9017D926D925D924D923D922D9257
:101D30001D920D92DF91CF915ECF2F923F924F92E5
:101D40005F926F927F928F929F92AF92BF92CF924B
:101D5000DF92EF92FF92CF93DF93EB01DA01BF01A5
:101D6000788069805A804B803C802D801E800F8057
:101D7000FB010995F901F190E190D190C190B190EA
:101D8000A190919081907F246E245D244C243B246B
:101D90002A2419240824F990E990D990C990B9907F
:101DA000A99099908990F901F192E192D192C19212
:101DB000B192A192919281927D926D925D924D929B
:101DC0003D922D921D920D92019751F6DF91CF9188
:101DD00012CFFDE0EAED6DCFFDE0EAEDAECFFDE024
:101DE000E3EF67CFFDE0E3EFA8CFFDE0E3ED61CFE8
:101DF000FDE0E8EEA2CF0DD10E94311A0E94131B24
:101E000099D40E94AB3E1092520684E08093420621
:101E100082E680938601C1E0C0932606C093210626
:101E200086E080932206C093310612E010933206BA
:101E300010922A0610922B068FE08093290689E5DE
:101E4000809380019AE5909381018093820180E4E0
:101E500080934106809346069091B200907F9093C4
:101E6000B2009091B20092609093B20090E3909390
:101E700041069093460680935006C0934606109301
:101E8000450603E00093410683E18093010821E0C9
:101E900030E02093260830932708209328083093B9
:101EA000290810928C0880938008109223031092C6
:101EB0002103D8E0D093220381E180932003E091B5
:101EC000F033F091F13382859385809338039093BA
:101ED00039038CE380938203D09380038093830340
:101EE000D09381036FD10E94811FD4D1C4D7C093F6
:101EF0000002109201021093020200930402C093A8
:101F00002002D09321020E94E3181ED10E94231EBA
:101F10000E946B1ECCD08823B9F00E94AF1BD0D199
:101F20000E94911FB0D70E94251AE091E233F091F0
:101F3000E33319950E94B7290E94831C0E94931EC7
:101F400061E181E00E94041B0E94781D0E94DF1E57
:101F50000E94851F0E94F017E091E033F091E13379
:101F60001995E091DA33F091DB331995D3CF292F0E
:101F700033272230310559F02330310569F0213003
:101F80003105E9F482E190E026E932E01CC08EE3FD
:101F900090E028E532E017C099278130910549F09B
:101FA00028F0029761F4E8E0F2E005C0E4E5F2E031
:101FB00002C0E8E2F2E0849190E09F0104C080E07A
:101FC00090E020E030E0FA012083318308951F92F1
:101FD0000F920FB60F92112408B60F9218BEFFCFC2
:101FE0001F920F920FB60F92112408B60F9218BECF
:101FF0008F939F938EB19FB186599F4F8EB99FB992
:102000009F918F910F9008BE0F900FBE0F901F9061
:1020100018958091780083FF0AC088E0809378004B
:1020200088ED84BF81E0809380000D94FE008BECEE
:10203000809352008091500088608093500080917E
:10204000510083FFFCCF82EC8093550080915000BB
:102050008061809350008091510084FFFCCF88ED17
:1020600084BF84E0809340001EB81FB881E0809355
:10207000430029E630E020930A0430930B042093B8
:102080000C0430930D04809300048093020480E8D4
:1020900080930001089588ED84BF81E080937900EA
:1020A000089588ED84BF8BE180938000089580912E
:1020B000030481FF09C08091010480FDFCCF82E010
:1020C0008093030481E0089580E00895809150009A
:1020D0008260809350008091510081FFFCCF82E0AC
:1020E0008093CA01EDE1F0E0E491E0936200ECE15D
:1020F000F0E0E491E09363001092CA0180E88093DD
:1021000065008BEB8093660080915600897F8093F9
:102110005600809156008460809356008091600044
:102120008160809360000895E0E4F0E084818E7F18
:102130008483E0E6F0E080818E7F8083E0E5F0E05C
:1021400080818D7F8083089587E08093A2007894BA
:102150000895089580E090E0089508950895089501
:1021600008950895089508950895CF93C82FE09194
:10217000D833F091D93319950E94EF29E091F033CB
:10218000F091F133C58389E1C89FB00111246855EE
:102190007D4F49E150E086ED93E30E94F07580E8C1
:1021A000CD3019F48093460602C080934506E09135
:1021B000D633F091D7331995E091DC33F091DD33CC
:1021C000CF91199449E150E068EA72E086ED93E31B
:1021D0000E94F075E0E4F6E080E881838683E09178
:1021E000F033F091F1338581C0CF0F931F93E091CD
:1021F000F033F091F1338B019C01458163E183E879
:1022000094E00E941F1C1F910F910895FF920F935D
:102210001F93CF93DF931F92CDB7DEB7F82E092F10
:102220009E012F5F3F4F482F592F63E183E894E0D1
:102230000E94371C182F8823F1F08091EF338830EB
:1022400018F089818D30B1F489818FDFEF2DF02F67
:1022500040E08191882319F04F5F4F31D1F7E09131
:10226000C524F091C624309731F06F2D702F81E195
:10227000199501C010E0812F0F90DF91CF911F9130
:102280000F91FF9008959B01AC0163E183E894E016
:102290000C945E1C08950C94E27508950F931F939F
:1022A000CF938C01C62FCC2339F00E94E275F80140
:1022B00081938F01C150F7CFCF911F910F91089556
:1022C0000E94E2750E94E2750E94E2750C94E2752C
:1022D000CF93DF93EC0161507109DA01420F531F74
:1022E000FC01CF018C1B9D0BA417B50721F41082B4
:1022F000DF91CF91089562307105C8F39D91392F18
:1023000032953F703A3010F4305D01C0395C308353
:102310009F709A3010F4905D01C0995C9183329661
:1023200062507109DECFCF93DF93EC01DA0120E038
:1023300030E05C91552351F111969C9111979923AE
:1023400039F12617370711F180ED850F8A3020F01B
:102350008FEB850F8630E0F480ED890F8A3020F016
:102360004FEB490F4630A0F4E52FF0E0513408F070
:10237000F797E295E07F913410F4982F01C09753BE
:102380009E2B99932F5F3F4F1296D3CFC90102C066
:1023900080E090E0DF91CF9108954115510509F457
:1023A00049C020E12093660623E02093A0092091F4
:1023B000A10927FFFCCF2091A0097093A0092091CB
:1023C000A10927FFFCCF2091A0096093A0092091CB
:1023D000A10927FFFCCF2091A00921E02093120141
:1023E00080931C0190931D0140931401509315019B
:1023F0001092220182EC94E28093280190932901AB
:1024000040932401509325018091100180688093AE
:10241000100180912001806880932001809110013B
:1024200087FDFCCF80E3809311018093210180E13F
:10243000809365060895CF92DF92EF92FF92CF933B
:10244000DF939091EF33983008F061C0C091EA3388
:10245000D091EB33209709F45AC080E1809366064F
:1024600086E08093A0098091A10987FFFCCF80912D
:10247000A00980E180936506000000008093660655
:1024800082E08093A0098091A10987FFFCCF809111
:10249000A0091092A0098091A10987FFFCCF80912B
:1024A000A0091092A0098091A10987FFFCCFC92E35
:1024B000D12CE12CF12C8DE0CC0CDD1CEE1CFF1C92
:1024C0008A95D1F78FEFE81AF80A8091A009C230F7
:1024D000D105D0F0C701B601D2DA8093A00980916E
:1024E000A10987FFFCCF8091A0099093A00980915A
:1024F000A10987FFFCCF8091A00982E0C80ED11C02
:10250000E11CF11C2297E3CF80E180936506E09106
:10251000F033F091F13385818D3029F0E091DC3397
:10252000F091DD3319958091010480FDFCCF82E0AC
:1025300080930304DF91CF91FF90EF90DF90CF90D5
:102540000895CF92DF92EF92FF92CF93DF93809125
:10255000EF33883038F0DF91CF91FF90EF90DF902C
:10256000CF9069CFC82ED12CE12CF12C8DE0CC0C72
:10257000DD1CEE1CFF1C8A95D1F78FEFE81AF80AD4
:10258000C1E2D0E0219739F395DAC701B6017EDACE
:1025900091DA8FEFD81AE80AF80AF4CFCF92DF92D7
:1025A000EF92FF920F931F934115E0E25E076105E2
:1025B000710508F06EC0C090EA33D090EB33E12C87
:1025C000F12C4C155D056E057F0508F062C06901B0
:1025D000E12CF12C00E010E220E030E0041B150BB0
:1025E000260B370BC016D106E206F30610F497014E
:1025F00086010115110509F44EC020E120936606FD
:1026000023E02093A0092091A10927FFFCCF20916E
:10261000A009252F33272093A0092091A10927FF86
:10262000FCCF2091A0094093A0092091A10927FF88
:10263000FCCF2091A00921E02093120180931C017E
:1026400090931D0100931401109315011092220123
:1026500082EC94E280932801909329010093240155
:102660001093250180911001806880931001809162
:1026700020018068809320018091100187FDFCCFAC
:1026800080E3809311018093210180E180936506AE
:1026900002C080E001C081E01F910F91FF90EF9098
:1026A000DF90CF9008958091CF0187FDFCCF0895F2
:1026B000FADF8091CF0181FF0BC086E38093CA01CE
:1026C000EBECF1E021E030E088ED90E084BF208386
:1026D0000895EF92FF920F931F93CF93DF93EC0136
:1026E0007B018A011092C201DEDFD701CE01800F8B
:1026F000911F26E048ED50E061E070E0EBECF1E086
:10270000C817D90779F0C093C0013D2F3F713093AE
:10271000C1012093CA0144BF60833091C4013D933D
:102720002196EECFC801DF91CF911F910F91FF90BD
:10273000EF90089541E050E061EC74E281E090E0B8
:10274000C8DF41E050E060EC74E280E090E0C1DF7F
:10275000E0E6F6E080E1858382E0868388E0858399
:102760008AE18183E0EAF9E01682178280EC8583B2
:1027700088E18483E0E0F1E0128A8BE6838B148A9F
:10278000158A20EA208F99E0918F128E148E158E73
:10279000168E84E0808B12A23CE633A314A215A20D
:1027A00010A611A612A624A795A716A680A3089581
:1027B0003F924F925F926F927F928F929F92AF92D1
:1027C000BF92CF92DF92EF92FF920F931F93CF931E
:1027D000DF938B01542E652E282F2F71722EEC0162
:1027E000C21BD10965DF5FDF83E38093CA011092CA
:1027F000C1011092C2017801052D162D85E3482EE6
:1028000098EDC92ED12C88248394912C3BECA32ED7
:10281000BB24B39443E3342E0115110501F17092EA
:10282000C001F70181917F018093C401015011091A
:1028300021F07394F0E27F12EFCFC093C0018D2F8F
:102840008F718093C1014092CA01C601F50184BF16
:102850008082A09628DF3092CA01712CDDCF852DB1
:10286000962DDF91CF911F910F91FF90EF90DF9008
:10287000CF90BF90AF909F908F907F906F905F9020
:102880004F903F900895EF92FF920F931F93CF9335
:10289000DF934115510509F480C08A01EB017C01E9
:1028A0008091C02481110DC06115704450F481E005
:1028B0008093C02441E050E060EC74E280E090E05E
:1028C00077DF80E18093660686E08093A00980919F
:1028D000A10987FFFCCF8091A00980E18093650664
:1028E000000000008093660682E08093A00980913A
:1028F000A10987FFFCCF8091A009D093A009809106
:10290000A10987FFFCCF8091A009C093A009809105
:10291000A10987FFFCCF8091A0091092120182ECDF
:1029200094E280931C0190931D0100931401109375
:10293000150180E180932201E0922801F0922901A3
:1029400000932401109325018091100180688093E9
:1029500010018091200180688093200180911001F6
:1029600087FDFCCF80E3809311018093210180E1FA
:1029700080936506CD2B41F4E091F033F091F13373
:1029800085818D3009F0F1DB61E186E0DF91CF9147
:102990001F910F91FF90EF9037C6DF91CF911F915C
:1029A0000F91FF90EF900895CF92DF92EF92FF92F8
:1029B0000F931F93CF93DF931091EF33183008F0EC
:1029C00071C0C091EA33D091EB33209709F46AC00B
:1029D0008091C024882309F465C01092C02441E08E
:1029E00050E060EC74E280E090E0E2DE80E1809311
:1029F000660683E08093A0098091A10987FFFCCF40
:102A00008091A0091092A0098091A10987FFFCCFB5
:102A10008091A0091092A0098091A10987FFFCCFA5
:102A2000C150DF4FCD2FDD27C12ED12CE12CF12C51
:102A30009DE0CC0CDD1CEE1CFF1C9A95D1F78FEFAE
:102A4000E81AF80A8091A009219748F133D82FD8C5
:102A500031D800E010E01092A0098091A10987FF11
:102A6000FCCF6091A00970E01092A0098091A109AB
:102A700087FFFCCF8091A009782BC8010DD81AD808
:102A80000E5F1F4F011581E0180729F7C701B60136
:102A900008D810D88FEFD81AE80AF80AD5CF80E105
:102AA0008093650660E186E0AFD563E185E0ACD553
:102AB0008091010480FDFCCF82E080930304DF91CC
:102AC000CF911F910F91FF90EF90DF90CF900895DD
:102AD000CF92DF92EF92FF920F931F93CF93DF93EA
:102AE0004115E0E25E076105710508F098C0C090ED
:102AF000EA33D090EB33E12CF12C4C155D056E05DB
:102B00007F0508F08CC06901E12CF12C00E010E297
:102B100020E030E0041B150B260B370BC016D10646
:102B2000E206F30610F4970186010115110509F478
:102B300076C06A017B01C92FD82F8091C0248111F2
:102B40000AC081E08093C02441E050E060EC74E270
:102B500080E090E02DDE80E18093660686E0809341
:102B6000A0098091A10987FFFCCF8091A00980E195
:102B700080936506000000008093660682E08093E3
:102B8000A0098091A10987FFFCCF96018091A0093F
:102B9000D092A0098091A10987FFFCCF8091A00964
:102BA000C092A0098091A10987FFFCCF8091A00964
:102BB0001092120182EC94E280931C0190931D010B
:102BC000009314011093150180E180932201D093AA
:102BD0002801C093290100932401109325018091BD
:102BE000100180688093100180912001806880939B
:102BF00020018091100187FDFCCF80E380931101BB
:102C00008093210180E180936506232B41F4E091BC
:102C1000F033F091F13385818D3009F0A6DA81E04F
:102C2000DF91CF911F910F91FF90EF90DF90CF90A8
:102C300008951F93CF93DF93CDB7DEB7A097CDBF95
:102C4000DEBF873009F4F5C078F4833009F468C03A
:102C500028F4813011F18230B9F106C1853009F4D0
:102C6000AEC008F482C0E3C08A3009F4E7C040F483
:102C7000883009F4E1C0893009F0F6C0DCDBF4C02B
:102C80008C3009F4EEC008F4EAC08D3009F0ECC0D5
:102C900088E194E20E94ED28E7C010E08091EC33D7
:102CA000181750F4F8DAE1E0F0E0EC0FFD1FE10F47
:102CB000F11D80831F5FF2CF8091EE33853009F0E4
:102CC000A1C080EE89839EC011E08091EC338730F3
:102CD00009F010E0E091E633F091E733CE01019680
:102CE00019954091EC3331E0141708F08BC0332371
:102CF000A9F0812F90E0E1E0F0E0EC0FFD1FE80F7C
:102D0000F91F208131E02F3F09F030E0E1E0F0E0F1
:102D1000EC0FFD1FE80FF91F2F5F20831F5FE4CF2B
:102D2000E091E633F091E733CE0101961995809159
:102D3000EC3341E0815008F465C04423D9F3282FD7
:102D400030E0E1E0F0E0EC0FFD1FE20FF31F9081B7
:102D500041E09F3F09F040E0E1E0F0E0EC0FFD1FB3
:102D6000E20FF31F9F5F9083E5CF11E08091EC337A
:102D7000873009F010E0E091E633F091E733CE01BF
:102D8000019619954091EC3331E01417D8F53323AF
:102D9000A1F0812F90E0E1E0F0E0EC0FFD1FE80FE3
:102DA000F91F208131E0211130E0E1E0F0E0EC0F8B
:102DB000FD1FE80FF91F215020831F5FE6CFE09130
:102DC000E633F091E733CE01019619958091EC330B
:102DD00041E08150B8F04423E1F3282F30E0E1E0F6
:102DE000F0E0EC0FFD1FE20FF31F908141E0911125
:102DF00040E0E1E0F0E0EC0FFD1FE20FF31F915027
:102E00009083E7CFE091E833F091E933CE0101966A
:102E10001995E091C524F091C624309729F140918D
:102E2000EC33BE016F5F7F4F83E119951DC081E0D8
:102E300001C080E0BCD318C0B7DD16C08091000887
:102E4000813021F490918C08933009F080E080FD6E
:102E500003C00E94792A08C00E949F2A05C086D21A
:102E600003C073D10E949D3EA096CDBFDEBFDF910F
:102E7000CF911F910895E0E0F6E080E6828388E13B
:102E8000868B858B0895CF93C0910806C095C6FFA9
:102E900012C08091C4248A3050F08A30E1F4E0916D
:102EA000F033F091F1338181C4DE8091C4248F5FCF
:102EB0008093C42410C08C2F807669F48091C42440
:102EC00081508A3030F4E091F033F091F133808119
:102ED000B0DE1092C424C5FF12C08091C3248A3092
:102EE00050F08A30D9F4E091F033F091F1338381DE
:102EF000A0DE8091C3248F5F8093C3240FC0C0766F
:102F000069F48091C32481508A3030F4E091F03329
:102F1000F091F13382818DDE1092C324CF91089518
:102F20009B01AC016EE086EF98E0C8C4E82FF0E0AA
:102F3000E151FC4C88E0638381503D968111FBCFC9
:102F400008950F931F939B01E091F033F091F133BB
:102F5000E80FF11D8A0140816EE086EF98E06FD4A2
:102F60001F910F9108950F931F93CF93DF931F929B
:102F7000CDB7DEB7082FAB019E012F5F3F4F6EE04C
:102F800086EF98E074D4182F882319F06981802F78
:102F9000CDDF812F0F90DF91CF911F910F91089579
:102FA0000895EF92FF920F931F93CF937B01C42F4D
:102FB0000EB11FB12091080430910904022B132B8C
:102FC0004AD78C2F48D7812F46D7802F44D76C2FD4
:102FD00070E0C701CF911F910F91FF90EF9062C7F2
:102FE00008953F924F925F926F927F928F929F923D
:102FF000AF92BF92CF92DF92EF92FF920F931F9307
:10300000CF93DF937C01E901C0900020D090012094
:10301000960122503843C901A0E0B0E04817590793
:103020006A077B0708F05FC0E2E0CE1AE0E4DE0A40
:103030002A013B014C0E5D1E611C711C481659068D
:103040006A067B0648F0241B350B8E01021B130B0E
:10305000E9013324339403C000E010E0312C460131
:10306000A12CB12C481559056A057B0510F5CA013C
:103070008E5F9F4B2A013B014C0E5D1E611C711C33
:10308000481459046A047B0428F4AE01BC01C7014A
:1030900084D918C0C41AD50AA601BC01C7017DD9BC
:1030A000AE014C195D096CEC74E2C7018C0D9D1DDD
:1030B00007C04C195D09BA0164537B4DAE01C701CD
:1030C0000E941E76332041F00C0F1D1FF701E00F08
:1030D000F11FCE0DDF1D02C081E006C0EC17FD0719
:1030E000D9F31292FBCF80E0DF91CF911F910F9126
:1030F000FF90EF90DF90CF90BF90AF909F908F9018
:103100007F906F905F904F903F9008952091C824DA
:103110003091C92480E098E0821B930BECECF4E240
:103120009F012C5C34422817390710F41192F8CF14
:103130008CEC94E28093CA249093CB2480E098E0B6
:103140008093C8249093C9240895E0DF82E090E43E
:10315000809300209093012042E050E060E070E412
:1031600080E090E290DB60E18AE04EC28091C8246A
:103170009091C92490592091002030910120821B08
:10318000930B0895EFEEF3E387833D9694E3E735E1
:10319000F907D1F7813049F018F0823059F00895DD
:1031A0001092C72480ED97E109C08093C72489E37A
:1031B00099E104C01092C72481ED97E18093C52462
:1031C0009093C6240895CF93DF931F92CDB7DEB7B7
:1031D000E091F033F091F1338481D4DFECECF4E250
:1031E000E093CA24F093CB2480E098E08093C82435
:1031F0009093C924DF019C011D9221503040E1F7DA
:1032000041E050E0BE016F5F7F4F82E090E061DA05
:1032100089818A3541F442E050E060E070E480E06A
:1032200090E2BBD817C082E090E480930020909396
:10323000012042E050E060E070E480E090E223DBB7
:103240008AE5898341E050E0BE016F5F7F4F82E0F5
:1032500090E0AEDAE091C524F091C624309729F0D1
:1032600040E060E070E08FEF19950F90DF91CF9113
:1032700008950F931F93CF93DF93CEB1DFB1A09149
:103280000804B09109042091C8243091C924E42F86
:10329000F0E08F010C5F1F4F2017310778F1CA2B28
:1032A000DB2B245031092E1B3F0B2093C824309375
:1032B000C924A091CA24B091CB248C9311964C932D
:1032C00011971296DC931297CD0104968093CA242D
:1032D0009093CB241396CC93DB01EC01415018F072
:1032E0002D912993FBCFE80FF91FE093CA24F093A7
:1032F000CB24DF91CF911F910F91089580E042DFA1
:1033000061E18AE0DF91CF911F910F917DC11F9301
:10331000CF93DF931F92CDB7DEB79E012F5F3F4F54
:10332000AC0163E084EC9AE0A2D2182F882311F05C
:10333000898128DF812F0F90DF91CF911F91089510
:103340000F931F93E091F033F091F1338B019C01C7
:10335000448163E084EC9AE072D21F910F9108954A
:103360009B01AC0163E084EC9AE0A8C20F931F9329
:10337000CF93DF938091C8249091C924811528E0D0
:10338000920708F05DC06091002070910120C0E0BC
:10339000D0E7C61BD70B00E018E0A801481B590B6B
:1033A000C417D507A0F08CEC94E26DDA8091002070
:1033B00090910120985F2091C8243091C924821BEC
:1033C000930B8093002090930120A0DE2EC02097C5
:1033D000B9F1AE018CEC94E256DAA8014C1B5D0BFE
:1033E000BE0164537B4D8CEC94E20E942776809161
:1033F000CA249091CB248C1B9D0B8093CA2490935C
:10340000CB248091C8249091C9248C0F9D1F809358
:10341000C8249093C9248091002090910120C80F66
:10342000D91FC0930020D093012042E050E060E01B
:1034300070E480E090E2DF91CF911F910F9123CA59
:10344000DF91CF911F910F9108958091C724811131
:103450008DCF089548E750E06FEE73E383E090E08E
:10346000A7C948E750E06FEE73E383E090E031D9FD
:103470008091EF33893068F42DE0829FC0011124E0
:103480008E509C4C2091F0333091F133281739073E
:1034900041F188E08093EF338AE594E38093F03341
:1034A0009093F133EFEEF3E397E086E071E064E0B0
:1034B00042E350E020E931E01086958383839683D0
:1034C000848317827187628743875487258736876D
:1034D0003D96A4E3E436FA0779F78DE080935F34F4
:1034E000B9CF0895EF92FF920F931F93CF93DF937D
:1034F0001F92CDB7DEB7082F80E3800F8983E0915C
:10350000C524F091C624309731F041E0BE016F5FD1
:103510007F4F82E119951FEF100F193008F03EC060
:103520000E94EF298091EF33181791F13DDA109343
:10353000EF332DE0129FC00111249C012E503C4C12
:103540002093F0333093F133FC01E151FC4C808542
:103550000E94B510E091F033F091F133848112DED6
:103560000E941B1283E090E09C012F5E334379019F
:103570006091EF33C90181519C4C0E94BF7C6091E6
:10358000F0337091F133C70180519C4C0E94C87C8C
:103590006FE1600F84E038D081E001C080E00F90DF
:1035A000DF91CF911F910F91FF90EF90089590912F
:1035B000EF3328E03DE0983018F02F5F90E006C030
:1035C000882311F09F5F01C0995F9770399FF001C8
:1035D0001124E151FC4C4085442319F081E0890F0E
:1035E00081CF215041F70895FC019091EF339F5C0A
:1035F000908311820895FC012181211103C08081F3
:10360000805370CF80E00895E091F033F091F13372
:103610009781981302C06093CD2C9681891302C0C4
:103620006093CC2C0895E0E0F6E088E1818381E0AE
:103630008283E0E8F6E092E0928382830895893005
:1036400008F04EC095E0899FF0011124ED5FFF4D19
:103650008081882321F080E18093050603C080E10A
:10366000809306068181882321F088E080930506F7
:1036700003C088E0809306068281811104C081E046
:103680008093060604C0813029F480930506809358
:10369000010603C081E0809302068381811104C08A
:1036A00082E08093860605C0813031F482E0809309
:1036B00085068093810603C082E080938206848120
:1036C000811104C081E08093860604C0813029F412
:1036D0008093850680938106089581E08093820619
:1036E0000895FB016D5C7C4219F0AEECBCE202C0B7
:1036F000AFECBCE29081923181F030F49031A1F0D6
:1037000048F4992359F129C0933151F090529930DE
:1037100070F023C08093050620C0809307061DC06B
:1037200090910406982371F08093060616C09C9130
:103730009F5F913011F09C9308951C929091040624
:10374000982319F4809305060895809306068081D6
:10375000803219F0815080830895108208958091FD
:103760003020811108C06CEC7CE280E1BADF6DECA6
:103770007CE288E0B6CF8091EF33909102208917E8
:1037800019F0809302205BCF08959B01AC016BE0A0
:1037900087E29BE093C0EFEEF3E398E0282F2870D8
:1037A0008071211162878111618791503D9691113D
:1037B000F8CF222329F098E0909306061092CD2CA2
:1037C000882329F080E1809306061092CC2C08957E
:1037D0000F931F939B018A01883031F4E091F033FD
:1037E000F091F133478107C0803149F4E091F03323
:1037F000F091F13346816BE087E29BE020D01F918E
:103800000F9108950F931F93CF93DF931F92CDB71E
:10381000DEB7082FAB019E012F5F3F4F6BE087E2C1
:103820009BE025D0182F882319F06981802FB3DF02
:10383000812F0F90DF91CF911F910F9108950F93DA
:103840001F93FC01662379F094916150941309C091
:10385000BF016F5F7F4FA801C9010E94027681E01E
:1038600003C0B196EFCF80E01F910F910895CF92E2
:10387000DF92EF92FF921F93CF93DF93EC017A01D7
:103880006901162F112389F0BE016F5F7F4FC701B9
:103890000E94F9751150892B31F4FE01C491F60193
:1038A000C08381E003C0A196EDCF80E0DF91CF918E
:1038B0001F91FF90EF90DF90CF900895CF930196E6
:1038C000CCE26623D1F0FC01DA01AD0174917723DB
:1038D00041F021153105A9F07D9331962150310930
:1038E000F4CF623038F02115310559F0FD01C08365
:1038F0004F5F5F4F61508196E4CF232B11F0FA01A7
:103900001082CF91089580912002806880932002D8
:103910008091230280FFFCCF81E080932302A0915D
:103920001002B0911102AE5BB109B7FF02C0A0E076
:10393000B0E020E038EB4BE050E00E947C75843F23
:10394000914060F460E187E05FDE8091EC33882392
:1039500041F0E091DE33F091DF33199461E187E0CB
:1039600053CE08958091D62E9091D72E2091D42EAB
:103970003091D52E2817390771F09C012F5F3F4FEA
:103980002093D62E3093D72E9170FC01EC52F14D3E
:10399000848190E008958FEF9FEF08959091A10AA0
:1039A00095FFFCCF8093A00A08951F920F920FB647
:1039B0000F92112408B60F9218BE09B60F9219BEC5
:1039C0000BB60F921BBE2F933F934F935F936F9352
:1039D0007F938F939F93AF93BF93EF93FF938091C8
:1039E000A10A8C7109F58091D42E9091D52E209149
:1039F000D62E3091D72EAC01421B530B9A012227B1
:103A00003E7F232B69F42091A00AFC01F170EC5257
:103A1000F14D248301968093D42E9093D52E0EC021
:103A200085E4BCDF80E306C085E4B8DF81E3B6DF70
:103A30008091A10AB3DF8091A00AB0DFFF91EF91DE
:103A4000BF91AF919F918F917F916F915F914F91B6
:103A50003F912F910F900BBE0F9009BE0F9008BEA3
:103A60000F900FBE0F901F9018950F931F93CF9339
:103A7000DF93EC018C01060F171FC017D10711F15E
:103A80008091D02C9091D12C2091D22C3091D32C9C
:103A9000AC01421B530B9A0122273E7F232B61F47A
:103AA0002881FC01F170E053F34D2483019680934B
:103AB000D02C9093D12C04C085E470DF82E36EDFBC
:103AC0002196DBCFDF91CF911F910F9108950F9336
:103AD0001F93CF938C01C62FCC2331F0F801819135
:103AE0008F015CDFC150F8CFCF911F910F910895E6
:103AF000BF92CF92DF92EF92FF920F931F93CF93DB
:103B0000DF93CDB7DEB7C454D109CDBFDEBF00917E
:103B1000D02C1091D12C8091D22C9091D32C081BB9
:103B2000190B95EAC92E25E7B22E01151105D1F121
:103B300078010134110518F080E4E82EF12CC982D7
:103B4000BA82DE2CEB821C826091D22C862F90915F
:103B5000D32C282F261B30E0AC014F5F5F4F2E1572
:103B60003F0570F4A5E0B0E0AC0FBD1FA20FB31F7E
:103B70009170FC01E053F34D84818C93CA01E9CF2D
:103B80008093D22C9093D32C60E070E0CE0101960C
:103B90008BD08C8364E06D0DCE01019698DF0E19F9
:103BA0001F09C3CFCC5BDF4FCDBFDEBFDF91CF910D
:103BB0001F910F91FF90EF90DF90CF90BF900895ED
:103BC000611524E8720723E08207910599F06115D9
:103BD00028E0720727E08207910589F0611522EC41
:103BE000720721E082079105D1F42EE62093A60A00
:103BF00023EA09C027E92093A60A21EA04C027E5A1
:103C00002093A60A21E92093A70A6093312070939C
:103C10003220809333209093342081E0089580E017
:103C200098E0A7E0B0E08093312090933220A093F9
:103C30003320B093342087E58093A60A81E98093EE
:103C4000A70A80E00895CF93DF93E4EDFEE21082AF
:103C50001182128213821482E0EDFCE21082118242
:103C6000128213821482E0E8F6E088E08183858383
:103C700084E0828388E1828BC0EADAE08D818F73F1
:103C80008D8383E08D8360E078E087E090E098DFCB
:103C90008C8188608C838C8180618C838B81806334
:103CA0008B83DF91CF910895FC016115710519F4A3
:103CB000BC016C5F7F4F928120818181820F890FCF
:103CC0008195362FFB012E2F231B291718F42191E4
:103CD000821BF9CF08951092D8301092D9301092EB
:103CE000673408950F931F93CF93DF938C01EB01FB
:103CF0008091DB30811112C0F8018281882371F03C
:103D000088810E942B27811103C088810E940D2980
:103D10002196F801828181508283EECFDF91CF918D
:103D20001F910F910895CF93DF93CDB7DEB7A6977C
:103D3000CDBFDEBF809135208F5F843118F4809332
:103D4000352022C01092352080914F208823E1F049
:103D500085EA898381E68A8382E28B8381E08D8391
:103D60001E8289E1E6E3F0E2DE01179601900D92F2
:103D70008A95E1F760E070E0CE01019695DF8C83D3
:103D800066E2CE010196A3DEA696CDBFDEBFDF912F
:103D9000CF91089580E00E94B51057DB80E18093B9
:103DA000050688E080930606D0E1C8E00E9457101F
:103DB0008823E1F3D0930706C0930706F7CFCF938C
:103DC000D1DD97FD46C02091D8303091D930F9012E
:103DD000E959FB4C80832115310521F4809167342A
:103DE000853A71F7C90101968093D8309093D93004
:103DF0008430910528F3209169342C3F28F530E078
:103E00002C5F3F4F82179307D8F2C0916A3460E06D
:103E100070E087E694E348DFC81316C080916834E9
:103E2000803769F0853729F0813671F410924F2080
:103E30000BC06BE674E387E694E354DF05C06BE6E2
:103E400074E387E694E3A6DF1092D8301092D9305D
:103E5000B7CFCF910895CF93DF931F92CDB7DEB741
:103E600089838091DB30882331F0698181E590E29C
:103E70000E94F27305C061E070E0CE010196F5DDAD
:103E80000F90DF91CF910895CF93DF93FC01849140
:103E9000EF012196882319F0DEDFFE01F8CFDF91D4
:103EA000CF9108952091DB30222331F0AB01BC018A
:103EB00081E590E20C94CE73D8CDFC0101900020F6
:103EC000E9F73197BF01681B790BECCFCF93DF93F4
:103ED00081E590E20E947774EC0197FD0FC081E0CC
:103EE0008093DB3063E183E08FDB8C2FB4D78111CB
:103EF00005C08C2FDF91CF910C940D29DF91CF91CC
:103F0000089580E28093620608958091DA308230CD
:103F100039F481E590E20E945B740E94636FD6CF12
:103F200008958091DA30813079F028F08230D9F02C
:103F3000833031F132C08091680685FF36C089E058
:103F40008093502081E00CC080915020815080935C
:103F5000502081112AC00E9466100E94FB7282E0EC
:103F60008093DA301AC08091680685FD1AC089E016
:103F70008093502083E08093DA301092DB300DC0C4
:103F80008091502081508093502081110EC00E945A
:103F9000C0720E9494101092DA308091DA30823030
:103FA00021F40E9462280C94B729089561E182E00F
:103FB0002BCB60E182E028CB81E590E20C94A973E1
:103FC00081E590E20C94CA7428E33EE03F932F937E
:103FD00021E33EE03F932F9329E23EE03F932F936E
:103FE00020E23EE03F932F9325E13EE03F932F9365
:103FF0002DEC3DE03F932F9322E02F931F929F9350
:104000008F930E9487768DB79EB740968DBF9EBFD7
:1040100085E6089560E072E00E94F51085E6089557
:10402000FB0120812F3349F42181211106C060E07A
:1040300072E00E94431185E60895CB010E940611AB
:10404000882371F0E091F033F091F133CF018A5E73
:10405000934365818D5F9F4F0E94BF7C84E60895E6
:104060008AEC0895EF92FF920F931F93CF93DF9303
:10407000CDB7DEB7A097CDBFDEBF7C010091EC339A
:1040800010E00115110591F485EC9DE09F938F934D
:1040900082E08F931F92FF92EF920E9487760F909B
:1040A0000F900F900F900F900F9010C0E091E6339B
:1040B000F091E733CE01019619959801AE014F5F5B
:1040C0005F4F60E072E0C7010E94681185E6A0962C
:1040D000CDBFDEBFDF91CF911F910F91FF90EF9089
:1040E0000895DF92EF92FF920F931F93CF93DF9388
:1040F000CDB7DEB7A097CDBFDEBF7B010091EC331B
:1041000010E06EEB7DE0C7010E94F975892BC1F4C8
:10411000D12CED2CF12CE016F10658F40E944B1135
:10412000E1E0F0E0EC0FFD1FEE0DFF1D8083D39466
:10413000F0CF8091EE33853069F480EE89830AC038
:10414000A70160E270E0CE0101960E94931108176A
:104150001907A9F4E091E833F091E933CE01019613
:104160001995E091C524F091C624309751F0409103
:10417000EC33BE016F5F7F4F83E1199502C08AEC7B
:1041800001C084E6A096CDBFDEBFDF91CF911F9125
:104190000F91FF90EF90DF900895FC018091ED3337
:1041A000882311F081E301C080E38083118285E6DA
:1041B0000895FB012181211127C02081213321F4A1
:1041C00081E08093ED3304C0203321F41092ED336D
:1041D00084E608952F33C1F41F9220E32F931F929A
:1041E00021E32F9328EB3DE03F932F9322E02F9381
:1041F0001F929F938F930E9487768DB79EB70A96E2
:104200008DBF9EBF85E608958AEC089588E695E106
:10421000F1D58EE608958EEC92E107D68EE60895EC
:10422000E0ECF4E081818E7F81830E94C0720E9465
:104230004B1084E60895E0ECF4E081818E7F818369
:104240000E94C0720E94511084E60895E6EDF3E3E7
:1042500025892F9324892F9325EB3DE03F932F93BE
:1042600022E02F931F929F938F930E9487768DB7A2
:104270009EB708968DBF9EBF85E608952091EC33CA
:104280001F922F9322EB3DE03F932F9322E02F9339
:104290001F929F938F930E9487768DB79EB7089643
:1042A0008DBF9EBF85E6089540E052E0BC0180E0EE
:1042B0000E94A11785E60895FB0120812F3349F460
:1042C0002181211106C060E072E00E94901785E60E
:1042D000089580E00E94B317882319F0BBD884E6C4
:1042E00008958AEC089540E052E0BC0181E00E940C
:1042F000A11785E60895FB0120812F3349F4218120
:10430000211106C060E072E00E94901785E60895D2
:1043100081E00E94B317882319F09CD884E60895A1
:104320008AEC089540E052E0BC0182E00E94A117AF
:1043300085E60895FB0120812F3349F42181211165
:1043400006C060E072E00E94901785E6089582E062
:104350000E94B317882319F07DD884E608958AEC6B
:10436000089540E052E0BC0183E00E94A11785E679
:104370000895FB0120812F3349F42181211106C0CA
:1043800060E072E00E94901785E6089583E00E9445
:10439000B317882319F05ED884E608958AEC08954F
:1043A00040E052E0BC0188E013DA85E60895FB01A5
:1043B00020812F3341F42181211105C060E072E09A
:1043C000E4D985E6089588E01DDA882319F042D8FB
:1043D00084E608958AEC089540E052E0BC0180E153
:1043E000F7D985E60895FB0120812F3341F421811F
:1043F000211105C060E072E0C8D985E6089580E12A
:1044000001DA882319F026D884E608958AEC089505
:1044100060E072E00E94A01985E60895FB0120810A
:104420002F3349F42181211106C060E072E00E941F
:10443000B01985E60895CB010E948719882319F0E9
:1044400009D884E608958AEC0895CF93DF93EC01B0
:104450000E94B618813028E0920718F09C0138506D
:1044600002C020E030E03F932F939F938F9382E927
:104470009DE09F938F9382E08F931F92DF93CF9362
:104480000E9487768DB79EB70A968DBF9EBF85E640
:10449000DF91CF91089581EF97E1C7D48EE608951B
:1044A0000E94B61984E608950E94A51884E608952E
:1044B00060E072E099D885E60895CB019CD881111F
:1044C00002C08AEC089584E608950E94A11284E651
:1044D00008950E94D41484E608950E941B1284E675
:1044E00008958091680680FD02C089E7089588E7F5
:1044F0000895DF92EF92FF920F931F93CF93DF9374
:10450000EC010FEF11E089E7E82E8FE0F82E9CE236
:10451000D92EB70183E394E20E94F975892BD1F07B
:1045200001151105B9F0DE01F7012491ED01219685
:10453000C8010197222341F00130110529F02C9385
:10454000DE0131968C01F1CFDC928C0188E1E80E1E
:10455000F11CDFCF2197188285E6DF91CF911F9163
:104560000F91FF90EF90DF900895FC018091200261
:104570008068809320028091230280FFFCCF81E03D
:1045800080932302A0911002B0911102AE5BB10999
:10459000B7FF02C0A0E0B0E020E038EB4BE050E015
:1045A0000E947C75AA27BB279F938F938BE89DE081
:1045B0009F938F9382E08F931F92FF93EF930E94BC
:1045C00087768DB79EB708968DBF9EBF85E6089506
:1045D0004EB15FB12091080430910904242B352B92
:1045E0003F932F9325E83DE03F932F9322E02F93B5
:1045F0001F929F938F930E9487768DB79EB70896E0
:104600008DBF9EBF85E608950F931F93CF93DF93D1
:104610001F921F92CDB7DEB78B01E091F033F0917E
:10462000F13385818D3009F06FC0E091DE33F09178
:10463000DF33199581E08093603160E270E0C8015A
:104640000E943F760097F9F4F80101900020E9F705
:104650003197E01BF10BE0FD59C0F695E795E1308D
:10466000F10539F487E090E08093D4339093D5330B
:1046700037C053E0EE0FFF1F5A95E1F7E093D433B4
:10468000F093D5332DC098012C5F3F4F82179307CD
:10469000E9F5A80162E070E0CE0101960E94931155
:1046A000898190E0982F88272A81820F911D80931D
:1046B000D4339093D5330B5F1F4FF8010190002046
:1046C000E9F73197E01BF10BE0FD20C0F695E79587
:1046D00033E0EE0FFF1F3A95E1F7E817F907B0F066
:1046E0006091D4337091D533695F7F4F83E07695C5
:1046F00067958A95E1F7A80182ED92E30E949311F4
:104700000E9452338FEF03C089EC01C08AEC0F90F6
:104710000F90DF91CF911F910F910895EF92FF922B
:104720000F931F93CF93DF931F921F92CDB7DEB7E6
:104730008B01E091F033F091F13385818D3009F0F8
:1047400080C0E091DE33F091DF33199582E08093F1
:10475000603160E270E0C8010E943F767C01892BE5
:1047600031F5F80101900020E9F73197E01BF10BDA
:10477000E0FD69C0F695E795E130F10539F487E091
:1047800090E08093D4339093D53347C053E0EE0F3D
:10479000FF1F5A95E1F7CF0169E070E00E9468754C
:1047A000E81BF90BE093D433F093D53336C0C8013E
:1047B0000496E816F90609F046C0A80162E070E028
:1047C000CE0101960E949311898190E0982F88274D
:1047D0002A81820F911D8093D4339093D5338730F3
:1047E000910529F09C0127703327232B61F5870160
:1047F0000F5F1F4FF80101900020E9F73197E01B90
:10480000F10BE0FD20C0F695E79533E0EE0FFF1FBA
:104810003A95E1F7E817F907B0F06091D433709159
:10482000D533695F7F4F83E0769567958A95E1F789
:10483000A80182ED92E30E9493110E9452338FEF00
:1048400003C089EC01C08AEC0F900F90DF91CF91EB
:104850001F910F91FF90EF900895E091F033F09148
:10486000F13385818D30A1F4E091DE33F091DF33B7
:10487000199585E0809360310E9497560E945233CB
:1048800081EA96E58093EA309093EB308FEF0895BC
:1048900089EC0895E091F033F091F13385818D300A
:1048A000A1F4E091DE33F091DF33199583E080933A
:1048B00060310E9497560E94523381EA96E58093B8
:1048C000EA309093EB308FEF089589EC0895E091F2
:1048D000F033F091F13385818D30A1F4E091DE3336
:1048E000F091DF33199586E0809360310E949756EE
:1048F0000E94523381EA96E58093EA309093EB3040
:104900008FEF089589EC0895E091F033F091F13341
:104910004085518564E6649F9001659F300D1124A8
:104920003F932F932FE73DE03F932F9322E02F9368
:104930001F929F938F930E9487768DB79EB708969C
:104940008DBF9EBF85E60895CF93DF931F921F9280
:10495000CDB7DEB7FB0120812F33B1F421812111C6
:1049600013C02DE43DE03F932F9322E02F931F923D
:104970009F938F930E9487760F900F900F900F90C8
:104980000F900F9085E62EC089E592E089839A8387
:10499000CE0101969F938F9389E49DE09F938F931F
:1049A0007F936F930E94BD760F900F900F900F90A2
:1049B0000F900F90892BA9F069817A816935F2E017
:1049C0007F0778F4E091F033F091F13360877187DD
:1049D000CF01875E93438D5F9F4F0E94C87C84E622
:1049E00001C08AEC0F900F90DF91CF910895E09174
:1049F000F033F091F13323852F9322852F9326E412
:104A00003DE03F932F9322E02F931F929F938F932C
:104A10000E9487768DB79EB708968DBF9EBF85E6AC
:104A20000895CF93DF931F921F92CDB7DEB7FB019E
:104A300020812F33B1F42181211113C02FE02F9356
:104A40002FEF2F9325EF3CE03F932F9322E02F93FE
:104A50001F929F938F930E948776CDBFDEBF85E61E
:104A600030C019821A82CE0101969F938F9381EFF5
:104A70009CE09F938F937F936F930E94BD760F90DE
:104A80000F900F900F900F900F90892BC9F06981B4
:104A90007A81611590E1790798F4609338037093F7
:104AA0003903E091F033F091F13362877387CF01DE
:104AB000855E93438D5F9F4F0E94C87C84E601C052
:104AC0008AEC0F900F90DF91CF910895FB01208128
:104AD0002F33D9F42181211121C01F9220E32F937C
:104AE0001F9221E32F932BEE3CE03F932F9322E084
:104AF0002F931F929F938F930E9487768DB79EB7B7
:104B00000A968DBF9EBF85E60895213311F4F1D436
:104B100003C0203319F413D584E608958AEC089570
:104B2000FC0180910008813029F480918C0891E08B
:104B3000833009F090E090FF02C081E301C080E380
:104B40008083118285E60895E091F033F091F1338E
:104B500085818D3079F4E091DE33F091DF33199562
:104B600084E0809360310E9497560E94523381EA1C
:104B700096E50EC08C3091F4E091DE33F091DF3396
:104B8000199581E080933C320E94595E8EE69EE545
:104B90008093EA309093EB308FEF089589EC08957D
:104BA0008DE00E94B510E091DE33F091DF3319956E
:104BB00087E0809360310E9497560E94523381EAC9
:104BC00096E58093EA309093EB308FEF0895209133
:104BD00034202F93209133202F93209132202F9334
:104BE000209131202F932EE134E23F932F9322E046
:104BF0002F931F929F938F930E9451768DB79EB7EC
:104C00000A968DBF9EBF85E60895CF93DF9300D0AF
:104C10001F92CDB7DEB795EA998394E79A8391E026
:104C20009B838D8360E070E0CE0101963DD88C833C
:104C30006B816C5FCE0101960E94671D2496CDBFEB
:104C4000DEBFDF91CF910895FB0120812F33D9F48E
:104C50002181211132C01F9220E32F931F9221E363
:104C60002F932EE93CE03F932F9322E02F931F9246
:104C70009F938F930E9487768DB79EB70A968DBFBC
:104C80009EBF85E60895213369F028F42033A9F406
:104C90001092302010C0223549F0243571F4818102
:104CA000B4DF09C081E08093302005C081E08093AB
:104CB0004F201092DB3084E608958AEC0895FC01C1
:104CC00080913020882311F081E301C080E380834C
:104CD000118285E60895FB0120812F33D9F42181CB
:104CE000211128C01F9220E32F931F9221E32F93BD
:104CF00028E93CE03F932F9322E02F931F929F934C
:104D00008F930E9487768DB79EB70A968DBF9EBF00
:104D100085E6089580ED820F823060F48093C1248F
:104D200041E050E061EC74E281E090E00E94D81331
:104D300084E608958AEC0895FC019091C124905D69
:104D40009083118285E60895A091F033B091F133FC
:104D500015962C911597263029F0283019F02A50F5
:104D60002230A0F5FB0120812F33D9F421812111BC
:104D70002FC01F9220E32F931F9221E32F9322E94C
:104D80003CE03F932F9322E02F931F929F938F93AA
:104D90000E9487768DB79EB70A968DBF9EBF85E627
:104DA0000895213321F481E01C968C9304C02033B4
:104DB00079F41C961C920E942A1AE091F033F0912B
:104DC000F13385810E94B51084E6089589EC089539
:104DD0008AEC0895FC01A091F033B091F1331C9658
:104DE0008C91882311F081E301C080E380831182DC
:104DF00085E6089521E02093E9302093E8302CE304
:104E00002093E63025E030E02093E4303093E53025
:104E10001092DE301092DF301092E0301092E130CC
:104E20008093DC309093DD30089527E02093E930C3
:104E30002CE231E02093E4303093E5301092DE3004
:104E40001092DF301092E0301092E1308093DC302D
:104E50009093DD300895CF939091E930953009F427
:104E60003FC030F4933019F130F5913068F426C129
:104E7000973009F4A2C008F448C0983009F4A4C0DF
:104E8000993009F48DC01AC1813031F41092E230AA
:104E90001092E33083E021C0843011F486E07EC0BC
:104EA000883109F47DC08B3109F07CC079C08093D2
:104EB000E73084E012C090E04091E7302FEF30E01F
:104EC000241B31098217930721F485E006C0891756
:104ED00069F185E10E942B1F82E08093E93062C076
:104EE0002091E2303091E330A9014F5F5F4F409352
:104EF000E2305093E330F901E959FA4C80834038AD
:104F0000510509F04FC086E0E8CF2091E73090913D
:104F1000E830291349C0E7E6F5E327EE35E390E0F2
:104F20002E173F07A1F24191940FFACF4091DE3046
:104F30005091DF306091E0307091E130E091DC30F1
:104F4000F091DD3020E830E087E695E31995C82F31
:104F5000882301F18091E8308F5F8093E830809161
:104F6000DE309091DF30A091E030B091E130805898
:104F70009F4FAF4FBF4F8093DE309093DF30A093B1
:104F8000E030B093E13086E00E942B1F82E08093F6
:104F9000E93095C088E10E942B1F88E10E942B1FF9
:104FA0001092E930C1E08BC030E0892F90E001978A
:104FB0002817390791F786E08DCF853119F41092C3
:104FC000E83008C08B3161F3883109F467CF86304F
:104FD00009F051C08091E8308F5F8093E8304091B4
:104FE000DE305091DF306091E0307091E130E0913F
:104FF000DC30F091DD3020E830E087E695E319956C
:10500000C82F882399F181E00E942B1F8091E830FE
:105010000E942B1F8091E83080950E942B1F60E832
:1050200070E087E695E30E94521FE7E6F5E380E033
:1050300095E3E73EF90719F09191890FF9CF0E94A6
:105040002B1F8091DE309091DF30A091E030B09145
:10505000E13080589F4FAF4FBF4F8093DE30909329
:10506000DF30A093E030B093E13029C084E00E94AB
:105070002B1F89E032CF853109F094CF81E00E9467
:105080002B1F8091E8300E942B1F8091E830809583
:105090000E942B1F60E870E087E695E30E94521F94
:1050A000E7E6F5E327EE35E380E02E173F0719F03A
:1050B0009191890FFACF0E942B1F74CFC0E08C2FE3
:1050C000CF9108958091E930813019F0873019F13E
:1050D00008958091E4309091E5309C012150310990
:1050E0002093E4303093E530892B21F58091E63030
:1050F0009FEF980F9093E630882321F085E10E947E
:105100002B1F02C01092E93085E090E08093E430DC
:105110009093E53008958091E4309091E5309C01C2
:10512000215031092093E4303093E530892B11F47C
:105130001092E9300895E0E5FEE020E030E094913F
:10514000981309C041E2429FC001439F900D112472
:105150008F5A914F08952F5F3F4FB19629303105F7
:1051600071F780E090E00895262FBA012F3311F4F3
:10517000469607C02D3311F4449611C021110CC07E
:105180004096FC01259134912115310521F187E6E6
:1051900095E3F90119950DC02032E9F44296FC011E
:1051A0002591349121153105B1F087E695E3F90198
:1051B00019958F3F89F491E09093EE304EB15FB135
:1051C0002091080430910904242B352B2093EC30D6
:1051D0003093ED30089589EC08950F931F93CF938A
:1051E000DF938C01C9E7DFE0BE01C8010E94F975B9
:1051F000892B49F440E050E060E0CE01DF91CF918F
:105200001F910F91B1CF689683E1C13BD80761F739
:10521000DF91CF911F910F910895EF92FF921F930D
:10522000CF93DF93982F9F7D91549A3160F090ED4A
:10523000980F9A3040F08F3531F0982F9D7F9D3335
:1052400011F08032D1F49FE9980F9A3108F480521E
:105250002091EF303091F0302F3F91E0390708F086
:105260007FC0A9014F5F5F4F4093EF305093F03004
:10527000F901E959FA4C808373C08D3009F040C0C0
:10528000E091EF30F091F030E959FA4C1082109231
:10529000EF301092F0308091EE30811161C080913A
:1052A0006735982F9F7D09F440C08D7F8D33E9F1DC
:1052B000E7E6F5E37F011191112331F01F3321F06F
:1052C0001D3311F01032B1F7F7011082C9E7DFE0AA
:1052D000BE0187E695E30E94F975892B59F4109277
:1052E0006735A7014F5F5F4F612FCE013DDF8F3FD5
:1052F000B9F124C06896F3E1C13BDF0749F715C057
:10530000883061F48091EF309091F030009741F156
:1053100001978093EF309093F03022C08B3101F5EC
:105320001092EF301092F0301BC088EC04DF0E9426
:10533000441F8DE49EE00E94441F12C0FCDE0E94C8
:10534000441F8DE49EE00E94441F809167358823AE
:1053500039F087E695E30E945D1F8AE49EE0EBCF7B
:1053600081E0DF91CF911F91FF90EF9008958091A0
:10537000EE30882399F1E091F033F091F1332085FC
:1053800031852115310551F14EB15FB1809108048D
:1053900090910904842B952B4091EC305091ED3085
:1053A000841B950B64E670E00E94687562177307B2
:1053B000A8F01092EE308BECBEDE0E94441F87E412
:1053C0009EE00E94441FE091EA30F091EB3030976C
:1053D00029F019951092EA301092EB3008958091DF
:1053E000EE308823A9F01092EE308BECA4DE0E9400
:1053F000441F87E49EE00E94441FE091EA30F09150
:10540000EB30309729F019951092EA301092EB307A
:105410000895CF93DF939091EE309923A9F0EB019B
:105420001092EE3088DE0E94441F84E49EE00E94C9
:10543000441F209749F0CE010E945D1F81E49EE049
:10544000DF91CF910C94441FDF91CF910895EF929B
:10545000FF920F931F93CF937C019B01613081E0FA
:10546000780710F020E031E08B01021B130BA7013D
:1054700060E072E087E695E30E94681187E695E3B5
:105480000E945D1FC1E0013081E01807A8F01A9565
:105490004C2F50E0542F44274E0D5F1D20E032E08A
:1054A00060E072E087E695E30E94681187E695E385
:1054B0000E945D1FCF5FE7CF0115110589F04C2FCA
:1054C00050E0542F44274E0D5F1D980160E072E0BC
:1054D00087E695E30E94681187E695E30E945D1FC9
:1054E0008EE39EE0CF911F910F91FF90EF900C946F
:1054F000441F80910008813021F490918C089330F2
:1055000009F080E080FD1AC08091F330811116C04F
:1055100081E08093000893E090938C088093F130B1
:105520001092F2302EB13FB180910804909109049D
:10553000822B932B8093F8309093F930089510923A
:105540008C0810920008E1EFF0E3108211820895B8
:105550009091F1309923F1F08091F230811115C0D2
:105560002091F1302223B9F04EB15FB120910804AF
:1055700030910904242B352B4091F8305091F930AB
:10558000241B350B2634310530F081E08093F23056
:10559000892F089581E00895CF93C091F330CC23F3
:1055A000C1F02EB13FB18091080490910904822B83
:1055B000932B2091F6303091F730821B930B209182
:1055C000F4303091F5308217930718F01092F330D1
:1055D00090DF8C2FCF910895E091F033F091F1336B
:1055E0008287938780933803909339030895E091DD
:1055F000F033F091F13382859385409682879387CB
:105600008093380390933903828593850895E091C0
:10561000F033F091F13380E991E0828793878093B2
:105620003803909339030895A0E2B6E081E015961F
:105630008C93159727E637E328B939B927EE37E376
:105640002AB93BB910B813B812B816B817B811B8C0
:10565000E0E0F9E010A211A22FEF30E026A337A37B
:105660002FEF3FEF20A731A7808398E8938390E145
:10567000948793E097831C968C931C9782E01A96EC
:105680008C930895E0E0F9E013828FE790E086AB19
:1056900097AB81E190E080AF91AFE0E0FAE010A23B
:1056A00011A28FEF9FEF86A397A389E883831682C9
:1056B00081E084878EE0808310922A0608951F92ED
:1056C0000F920FB60F92112408B60F9218BE09B6AA
:1056D0000F9219BE0BB60F921BBE2F933F934F93A1
:1056E0005F936F937F938F939F93AF93BF93EF934A
:1056F000FF93E091D233F091D3331995FF91EF915D
:10570000BF91AF919F918F917F916F915F914F91D9
:105710003F912F910F900BBE0F9009BE0F9008BEC6
:105720000F900FBE0F901F9018951F920F920FB6FB
:105730000F92112408B60F9218BE0BB60F921BBE23
:105740002F933F938F939F93EF93FF93209128067E
:1057500093B1267081E009F080E0990F892B83B91D
:1057600082B1882309F463C012B883B1877087308F
:1057700059F51092000980E180930C091092030AF8
:105780001B9B03C08CEA94E002C08CE694E08093FB
:10579000260A9093270A82E081B981E080930C0A5F
:1057A00083E08093060A86B197B1877049F090B183
:1057B0008F5F893011F09695FBCFE8B1F9B19083F6
:1057C00081E08093FA3036C083B1982F9C7091F1BC
:1057D000847091B191111CC020B12695882311F0DD
:1057E00080E001C080E8282B20B986B197B10196EE
:1057F00086B997B987709927892BE1F4E8B1F9B197
:10580000CF01019688B999B9208381E081B912C08E
:1058100091B1913079F4EAB1FBB19F012F5F3F4F15
:105820002AB93BB9811190E0908311B803C082B1CD
:10583000809582B988E880930309FF91EF919F9149
:105840008F913F912F910F900BBE0F9008BE0F903C
:105850000FBE0F901F9018951F920F920FB60F92C8
:10586000112408B60F9218BE0BB60F921BBE2F93D1
:105870003F938F939F93EF93FF9381B1823008F40E
:105880009DC081B18D3008F099C0E1B1F0E0EE0F1C
:10589000FF1FEA58FF4D0190F081E02D19948FE72A
:1058A00090E08093260A9093270A88C08E9A8EE013
:1058B000809340088FE390E08093260A9093270A14
:1058C00085E06FC08E9886E081B98FEF82B914B8F9
:1058D00015B8E8B1F9B1808180B970C0009B05C0EE
:1058E0008E9A82B1809582B901C08E9887E059C0A6
:1058F000009B02C08E9801C08E9A80B1869580B9B7
:1059000084B195B1019684B995B984B195B1877088
:105910009927892B11F488E044C024B135B186B1B0
:1059200097B128173907B1F52BC0EAB1FBB1309711
:1059300011F0808101C082B1882311F08E9A01C0DC
:105940008E9889E02EC0EAB1FBB1309751F080818A
:10595000882311F08E9801C08E9A3196EAB9FBB96E
:1059600008C082B1882311F08E9801C08E9A8FEF03
:1059700082B924B135B186B197B12817390711F42E
:105980008AE00FC0E8B1F9B1CF01019688B999B9A1
:10599000818180B986E005C08E988BE002C08E9828
:1059A0008CE081B90BC01092000A1092060A109286
:1059B00040081092410881E08093FB30FF91EF9105
:1059C0009F918F913F912F910F900BBE0F9008BE2A
:1059D0000F900FBE0F901F901895CF93DF93EAEFB3
:1059E000F0E3108211828AE09EE28093D03290939D
:1059F000D13282E49BE28093D2339093D333E0E4BC
:105A0000F6E0128A84E08283C0E8D1E082E68E83E9
:105A1000A0E2B6E081E016968C93169711968C93CF
:105A2000119796E012969C93129751968C935197EA
:105A300032E052963C9352971A961C921A971B96F4
:105A40001C921B979FE019969C9399E598832AE5F1
:105A500029839A8390E491839683A0EBB0E0129619
:105A60002C911297207F12962C93129712962C91BC
:105A70001297226012962C9320E321832683908B29
:105A80008683358383E08183E0E0F8E083E18183EE
:105A900021E030E026A337A320A731A7E0E8F8E013
:105AA00014868083E0E2F3E01382118288E082832F
:105AB00091E19083A091F033B091F1331A962D913A
:105AC0003C911B97208F318FE0E8F3E09CE39283B9
:105AD000808393838183DF91CF91A6CDA0E2B6E04E
